:03000000020006F5
:03005F0002000399
:03000300020154A3
:20006200759850438920758DFDD28ED29922AF8210990280FB8F9922AD82AE83AFF08D829A
:200082008E838FF012020FFC60188C820DBD00010EC007C006C005120070D005D006D007FA
:2000A20080DC22AE82AF83EE4F70067582300200707D00EE4F603FED2408F90D750D0A7599
:2000C2000E008E828F83C007C006C005C0011201C2AB82D001D005D006D00774302BF7754B
:2000E2000D0A750E008E828F83C005120199AE82AF83D00580BD8D071FEF20E70FEF24088A
:20010200F98782C007120070D00780EC2285820D85830EE4F50FF510C3E50F950DE5109533
:200122000E502EE4F511F512C3E5119478E5129400500FAE11AF1274012EF511E43FF5123E
:2001420080E6AE0FAF1074012EF50FE43FF51080C7221200627E007F0090022F75F080C0AC
:2001620007C00612007AD006D0078E828F83C007C0061200A590023675F08012007AD00602
:17018200D0070EBE00010F9003E8C007C00612010FD006D00780C29A
:0A022F0068656C6C6F20000D0A007A
:200199007A10E4FBFCE58225E0F582E58333F583EB33FBEC33FCEB950DF5F0EC950E400670
:0901B900FCABF0438201DADD2207
:06003500E478FFF6D8FD9F
:200013007900E94400601B7A00900239780175A000E493F2A308B8000205A0D9F4DAF27558
:02003300A0FF2C
:2001C200E50D450E60467A01E50D25E0F50DE50E334012F50EE582950DE583950E40030AE2
:2001E20080E6C3E50E13F50EE50D13F50DC3E582950DF5F0E583950E4005F58385F082C391
:0D020200E50E13F50EE50D13F50DDAE12202
:20003B007800E84400600A790175A000E4F309D8FC7800E84400600C7900900001E4F0A3C3
:04005B00D8FCD9FAFA
:0D00060075811212022BE5826003020003D7
:1C020F0020F71430F6148883A88220F507E6A88375830022E280F7E49322E022FE
:04022B0075820022B6
:00000001FF
