:03000000020006F5
:03005F0002000399
:0300030002008078
:20006200759850438920758DFDD28ED29922AE82AF8310990280FB8E998E828F8322120044
:20008200627411C0E07409C0E07480C0E01201891581158115817422C0E07409C0E0748081
:2000A200C0E01201891581158115817E007F007D008E038F048B828C83E4F08B828C83E0B6
:2000C2008B828C8374AAF08B828C83E08B828C837455F08B828C83E0FBFA7C00C007C00629
:2000E200C005C003C002C004C006C0077465C0E07409C0E07480C0E0120189E58124F9F525
:2001020081D003D005D006D007BB5523C007C006C005747DC0E07409C0E07480C0E012012D
:2001220089158115811581D005D006D0078021C007C006C0057484C0E07409C0E07480C094
:1F014200E0120189158115811581D005D006D00774102FFF0DBD100050030200B380FECC
:200911000A383035312052414D20746573740D0A0073657175656E63653A20777269746519
:200931002030783030202D3E2077726974652030784141202D3E207772697465203078358B
:2009510035202D3E2072656164202620636865636B0D0A00307825303458202D3E20726584
:1C09710061643A2030782530325820005B4F4B5D0D0A005B6661696C5D0D0A00D0
:06003500E478FFF6D8FD9F
:200013007900E94400601B7A00900998780175A000E493F2A308B8000205A0D9F4DAF275F2
:02003300A0FF2C
:20003B007800E84400600A790175A000E4F309D8FC7800E84400600C7900900001E4F0A3C3
:04005B00D8FCD9FAFA
:20016100C0348581347E008E83120070D0342285821985831A85F01BE4F516F517F51885BA
:20018100081C90016102024AC034E581F53424FBFF8F1CE4F516F517F518E53424FBF886F0
:1001A1001908861A08861B90016112024AD034226E
:2001B100AF82C00CC00DC00E1201BE8007C00AC00B8F82221581158115810514E4B51402EC
:2001D100051522AF8274302FFF24C6500B74072FFFE50960034307208F820201B1E582FFFB
:2001F100C4540FF582C0071201D4D007740F5FF5820201D4858235AB0FAC10AD11AE12AAC1
:20021100137537208A07EF2FF536EE2354014536FAEB2BFBEC33FCED33FDEE33FEC3EA958F
:20023100354008EAC39535FA430301D537D68B0F8C108D118E128A132285820A85830B85BA
:20025100160C85170D85180EE4F514F515AD19AE1AAF1B8D828E838FF01208F1FC74012D80
:20027100F519E43EF51A8F1BECFF70030208B5BF250280030208ADE4F51DF51EF51FF52015
:20029100F521F522F523F524F526F527F5287529FF752AFFAC19AD1AAE1B8C828D838EF06F
:2002B1001208F1F52EA3AC82AD838C198D1A8E1B7425B52E08852E821201B1809074D02513
:2002D1002E400302036FE52E24C6500302036F74FFB5294BB52A48C004C005C00685273571
:2002F10085283690000AC006C005C0041208D4AA82AB83D004D005D006AE2E7D00EE2AFAEF
:20031100ED3BFBEA24D0F527EB34FFF528E5274528D006D005D0047081751E010202ABC088
:2003310004C005C006852935852A3690000AC006C005C0041208D4AA82AB83D004D005D0AB
:2003510006AD2E7E00ED2AFAEE3BFBEA24D0F529EB34FFF52AD006D005D0040202AB742EEF
:20037100B52E1574FFB52905B52A0280030202ABE4F529F52A0202AB749F252E500EE52E64
:2003910024854008532EDF75090180037509007420B52E0302043C742BB52E03020436748A
:2003B1002DB52E0280797442B52E030204427443B52E0302044E7444B52E030205DD744610
:2003D100B52E030205F47448B52E030202AB7449B52E030205DD744AB52E030202AB744C40
:2003F100B52E028052744FB52E030205E57450B52E030205727453B52E0280627454B52E44
:20041100030202AB7455B52E030205EA7458B52E030205EF745AB52E030202AB0205F975F9
:200431001D010202AB751F010202AB7520010202AB7522010202AB7523010202ABE522605F
:200451000AE51C14F9891C8706800BE51C24FEFD8D1C8D0187068E821201B1020605E51CF0
:2004710024FDFE8E1C8E01870409870509870619198C0F8D108E118C828D838EF01208BCE2
:2004910085822F85833074FFB52909B52A06852F2985302AE51D703DC3E52F9527E53095F6
:2004B100285032E527C3952FF527E5289530F528AC27AB288C028B061CBCFF011BEA4E6093
:2004D10010758220C004C0031201B1D003D00480E38C278B28AD29AE2A850F8285108385C8
:2004F10011F01208F1FB6033C3E49D74808EF063F08095F050251DBDFF011E8B82C006C043
:20051100051201B1D005D006AA0FAB10AC110ABA00010B8A0F8B108C1180BEE51D700302CF
:200531000605C3E52F9527E53095284003020605E527C3952FF527E5289530F528AE27ADCA
:20055100288E038D041EBEFF011DEB4C7003020601758220C006C0051201B1D005D0068003
:20057100E0E51C24FDFC8C1C8C01870209870309870419198A0F8B108C11AC11BC8000404B
:20059100047B438014BC600040047B50800BBC400040047B4980027B588B82C0031201B151
:2005B10075823A1201B17582301201B17582781201B1D003BB4902800BBB5002800685108B
:2005D100821201EE850F821201EE802875210175260A8020752608801B75260A80167526D8
:2005F100108011752401800C852E821201B180048E278D28E524605BE51C24FCFE8E1C8E21
:200611000187030987040987050987061919198B0F8C108D118E12750F8D7510097511801B
:20063100850F3185103285113374012531FAE43532FBAE338A0F8B108E1185318285328323
:200651008533F01208F1FD700302025E8D821201B180CDE526700302025EE5226029E51C73
:2006710014F9891C87067D007C007B008E0F8D108C118B12E5217063AB0FFCFDFE8B0F8C92
:20069100108D118E128054E5236021E51C24FCFE8E1C8E01870309870409870509870619E4
:2006B10019198B0F8C108D118E12802FE51C24FEFE8E1C8E01870509870619EE3395E0FCAD
:2006D100FB8D0F8E108C118B12E521700EAB0FAC10FDFE8B0F8C108D118E12E5216023E5C3
:2006F1001230E71BC3E4950FFBE49510FCE49511FDE49512FE8B0F8C108D118E128003755E
:200711002100752501793D7D007E00751300852682C006C005C001120205D001D005D006C5
:20073100E5257013E513C454F0FCE513C4540F4204E74CF7198002A7130DBD00010EE52558
:20075100B40100E433F525E50F45104511451270BA892D8D2B8E2CE52745287005752701CF
:20077100F528E51E702DE51D7029AA27AB28AC2B0C7E00C3EC9AEE9B5015758220C003C03A
:20079100021201B1D002D0031ABAFF011B80DF8A278B28E521601175822D1201B11527741C
:2007B100FFB527021528802EE52B452C6028E51F601175822B1201B1152774FFB52702155A
:2007D100288013E520600F7582201201B1152774FFB527021528E51D702FAE27AD288E0358
:2007F1008D041EBEFF011DC3E52B9BE52C9C503AE51E60047C3080027C208C82C006C005EF
:200811001201B1D005D00680D5C3E52B9527E52C9528500FE527C3952BF527E528952CF5D9
:2008310028800BE4F527F52880048E278D28A92DAD2BAE2C8D038E041DBDFF011EEB4C60B0
:2008510030E525B40100E433F525700A09E7C4540FFC8C1380078704740F5CF51385138228
:20087100C006C005C0011201D4D001D005D00680C3E51D700302025EAD27AE288D038E04D2
:200891001DBDFF011EEB4C700302025E758220C006C0051201B1D005D00680E08F821201AE
:0B08B100B102025E85148285158322CF
:0B098D003C4E4F20464C4F41543E00B2
:1808BC00AA82AB831208F16003A380F8C3E5829AF582E5839BF5832269
:1D08D400E5828535F0A4C582C0F08536F0A4D0F025F0C5838535F0A42583F583225F
:0D00060075813D12090DE5826003020003C3
:1C08F10020F71430F6148883A88220F507E6A88375830022E280F7E49322E02216
:04090D0075820022CD
:00000001FF
