:03000000020006F5
:03005F0002000399
:030003000200A454
:20006200AE82AF8310990280FB8E998E828F8322759850438920758DFDD28ED29922AE8226
:20008200AF837C007D00C3EC9EED9F50147A787B001ABAFF011BEA4B70F70CBC00E80D80C1
:2000A200E5221200727E007F00C007C006C006C0077491C0E07408C0E07480C0E01201092B
:1F00C200E58124FBF581D006D0070EBE00010F9003E8C007C006120080D006D00780CA0A
:0B08910068656C6C6F2025750D0A0077
:06003500E478FFF6D8FD9F
:200013007900E94400601B7A009008A7780175A000E493F2A308B8000205A0D9F4DAF275E4
:02003300A0FF2C
:20003B007800E84400600A790175A000E4F309D8FC7800E84400600C7900900001E4F0A3C3
:04005B00D8FCD9FAFA
:2000E100C0348581347E008E83120062D0342285821985831A85F01BE4F516F517F5188549
:20010100081C9000E10201CAC034E581F53424FBFF8F1CE4F516F517F518E53424FBF88672
:100121001908861A08861B9000E11201CAD03422F0
:20013100AF82C00CC00DC00E12013E8007C00AC00B8F82221581158115810514E4B51402EC
:20015100051522AF8274302FFF24C6500B74072FFFE50960034307208F82020131E582FFFB
:20017100C4540FF582C007120154D007740F5FF582020154858235AB0FAC10AD11AE12AA41
:20019100137537208A07EF2FF536EE2354014536FAEB2BFBEC33FCED33FDEE33FEC3EA9510
:2001B100354008EAC39535FA430301D537D68B0F8C108D118E128A132285820A85830B853B
:2001D100160C85170D85180EE4F514F515AD19AE1AAF1B8D828E838FF0120871FC74012D81
:2001F100F519E43EF51A8F1BECFF7003020835BF2502800302082DE4F51DF51EF51FF52096
:20021100F521F522F523F524F526F527F5287529FF752AFFAC19AD1AAE1B8C828D838EF0EF
:20023100120871F52EA3AC82AD838C198D1A8E1B7425B52E08852E82120131809074D02593
:200251002E40030202EFE52E24C650030202EF74FFB5294BB52A48C004C005C006852735F3
:2002710085283690000AC006C005C004120854AA82AB83D004D005D006AE2E7D00EE2AFAEF
:20029100ED3BFBEA24D0F527EB34FFF528E5274528D006D005D0047081751E0102022BC089
:2002B10004C005C006852935852A3690000AC006C005C004120854AA82AB83D004D005D0AC
:2002D10006AD2E7E00ED2AFAEE3BFBEA24D0F529EB34FFF52AD006D005D00402022B742EF0
:2002F100B52E1574FFB52905B52A02800302022BE4F529F52A02022B749F252E500EE52EE5
:2003110024854008532EDF75090180037509007420B52E030203BC742BB52E030203B6740C
:200331002DB52E0280797442B52E030203C27443B52E030203CE7444B52E0302055D744612
:20035100B52E030205747448B52E0302022B7449B52E0302055D744AB52E0302022B744CC0
:20037100B52E028052744FB52E030205657450B52E030204F27453B52E0280627454B52EC5
:200391000302022B7455B52E0302056A7458B52E0302056F745AB52E0302022B02057975FA
:2003B1001D0102022B751F0102022B75200102022B75220102022B75230102022BE5226060
:2003D1000AE51C14F9891C8706800BE51C24FEFD8D1C8D0187068E82120131020585E51C72
:2003F10024FDFE8E1C8E01870409870509870619198C0F8D108E118C828D838EF012083CE3
:2004110085822F85833074FFB52909B52A06852F2985302AE51D703DC3E52F9527E5309576
:20043100285032E527C3952FF527E5289530F528AC27AB288C028B061CBCFF011BEA4E6013
:2004510010758220C004C003120131D003D00480E38C278B28AD29AE2A850F8285108385C8
:2004710011F0120871FB6033C3E49D74808EF063F08095F050251DBDFF011E8B82C006C043
:2004910005120131D005D006AA0FAB10AC110ABA00010B8A0F8B108C1180BEE51D700302D0
:2004B1000585C3E52F9527E53095284003020585E527C3952FF527E5289530F528AE27AD4D
:2004D100288E038D041EBEFF011DEB4C7003020581758220C006C005120131D005D0068085
:2004F100E0E51C24FDFC8C1C8C01870209870309870419198A0F8B108C11AC11BC800040CC
:20051100047B438014BC600040047B50800BBC400040047B4980027B588B82C00312013151
:2005310075823A120131758230120131758278120131D003BB4902800BBB5002800685108B
:200551008212016E850F8212016E802875210175260A8020752608801B75260A8016752658
:20057100108011752401800C852E8212013180048E278D28E524605BE51C24FCFE8E1C8E21
:200591000187030987040987050987061919198B0F8C108D118E12750F9C7510087511808E
:2005B100850F3185103285113374012531FAE43532FBAE338A0F8B108E11853182853283A4
:2005D1008533F0120871FD70030201DE8D8212013180CDE52670030201DEE5226029E51CF6
:2005F10014F9891C87067D007C007B008E0F8D108C118B12E5217063AB0FFCFDFE8B0F8C13
:20061100108D118E128054E5236021E51C24FCFE8E1C8E0187030987040987050987061964
:2006310019198B0F8C108D118E12802FE51C24FEFE8E1C8E01870509870619EE3395E0FC2D
:20065100FB8D0F8E108C118B12E521700EAB0FAC10FDFE8B0F8C108D118E12E5216023E543
:200671001230E71BC3E4950FFBE49510FCE49511FDE49512FE8B0F8C108D118E12800375DE
:200691002100752501793D7D007E00751300852682C006C005C001120185D001D005D006C7
:2006B100E5257013E513C454F0FCE513C4540F4204E74CF7198002A7130DBD00010EE525D9
:2006D100B40100E433F525E50F45104511451270BA892D8D2B8E2CE5274528700575270150
:2006F100F528E51E702DE51D7029AA27AB28AC2B0C7E00C3EC9AEE9B5015758220C003C0BB
:2007110002120131D002D0031ABAFF011B80DF8A278B28E521601175822D1201311527749C
:20073100FFB527021528802EE52B452C6028E51F601175822B120131152774FFB52702155A
:20075100288013E520600F758220120131152774FFB527021528E51D702FAE27AD288E0358
:200771008D041EBEFF011DC3E52B9BE52C9C503AE51E60047C3080027C208C82C006C0056F
:20079100120131D005D00680D5C3E52B9527E52C9528500FE527C3952BF527E528952CF5DA
:2007B10028800BE4F527F52880048E278D28A92DAD2BAE2C8D038E041DBDFF011EEB4C6031
:2007D10030E525B40100E433F525700A09E7C4540FFC8C1380078704740F5CF513851382A9
:2007F100C006C005C001120154D001D005D00680C3E51D70030201DEAD27AE288D038E0454
:200811001DBDFF011EEB4C70030201DE758220C006C005120131D005D00680E08F8212012F
:0B083100310201DE8514828515832250
:0B089C003C4E4F20464C4F41543E00A4
:18083C00AA82AB831208716003A380F8C3E5829AF582E5839BF5832269
:1D085400E5828535F0A4C582C0F08536F0A4D0F025F0C5838535F0A42583F58322DF
:0D00060075813D12088DE582600302000344
:1C08710020F71430F6148883A88220F507E6A88375830022E280F7E49322E02296
:04088D00758200224E
:00000001FF
