:03000000020006F5
:03005F0002000399
:0300030002008078
:20006200759850438920758DFDD28ED29922AE82AF8310990280FB8E998E828F8322120044
:20008200627401C0E07409C0E07480C0E01201791581158115817412C0E07409C0E07480B1
:2000A200C0E01201791581158115817E007F007D008E038F048B828C83E4F08B828C837432
:2000C200AAF08B828C83F4F0F508AB087C00C007C006C005C003C004C006C0077455C0E089
:2000E2007409C0E07480C0E0120179E58124F9F581D005D006D0077455B50823C007C00610
:20010200C005746DC0E07409C0E07480C0E0120179158115811581D005D006D0078021C0B5
:2001220007C006C0057474C0E07409C0E07480C0E0120179158115811581D005D006D00722
:0F01420074102FFF0DBD100050030200B380FE9C
:200901000A383035312052414D20746573740D0A0073657175656E63653A20777269746529
:200921002030783030202D3E2077726974652030784141202D3E207772697465203078359B
:2009410035202D3E2072656164202620636865636B0D0A00307825303458202D3E20726594
:1C09610061643A2030782530325820005B4F4B5D0D0A005B6661696C5D0D0A00E0
:06003500E478FFF6D8FD9F
:200013007900E94400601B7A00900988780175A000E493F2A308B8000205A0D9F4DAF27502
:02003300A0FF2C
:20003B007800E84400600A790175A000E4F309D8FC7800E84400600C7900900001E4F0A3C3
:04005B00D8FCD9FAFA
:20015100C0358581357E008E83120070D0352285821A85831B85F01CE4F517F518F51985C1
:20017100091D90015102023AC035E581F53524FBFF8F1DE4F517F518F519E53524FBF88617
:100191001A08861B08861C90015112023AD035229A
:2001A100AF82C00DC00EC00F1201AE8007C00BC00C8F82221581158115810515E4B5150205
:2001C100051622AF8274302FFF24C6500B74072FFFE50A60034307208F820201A1E582FF19
:2001E100C4540FF582C0071201C4D007740F5FF5820201C4858236AB10AC11AD12AE13AAEC
:20020100147538208A07EF2FF537EE2354014537FAEB2BFBEC33FCED33FDEE33FEC3EA959B
:20022100364008EAC39536FA430301D538D68B108C118D128E138A142285820B85830C85C0
:20024100170D85180E85190FE4F515F516AD1AAE1BAF1C8D828E838FF01208E1FC74012D95
:20026100F51AE43EF51B8F1CECFF70030208A5BF2502800302089DE4F51EF51FF520F5213E
:20028100F522F523F524F525F527F528F529752AFF752BFFAC1AAD1BAE1C8C828D838EF073
:2002A1001208E1F52FA3AC82AD838C1A8D1B8E1C7425B52F08852F821201A1809074D0253D
:2002C1002F400302035FE52F24C6500302035F74FFB52A4BB52B48C004C005C0068528369B
:2002E10085293790000AC006C005C0041208C4AA82AB83D004D005D006AE2F7D00EE2AFA0C
:20030100ED3BFBEA24D0F528EB34FFF529E5284529D006D005D0047081751F0102029BC0A3
:2003210004C005C006852A36852B3790000AC006C005C0041208C4AA82AB83D004D005D0C7
:2003410006AD2F7E00ED2AFAEE3BFBEA24D0F52AEB34FFF52BD006D005D00402029B742E0C
:20036100B52F1574FFB52A05B52B02800302029BE4F52AF52B02029B749F252F500EE52F8D
:2003810024854008532FDF750A018003750A007420B52F0302042C742BB52F0302042674B5
:2003A1002DB52F0280797442B52F030204327443B52F0302043E7444B52F030205CD74464C
:2003C100B52F030205E47448B52F0302029B7449B52F030205CD744AB52F0302029B744C8C
:2003E100B52F028052744FB52F030205D57450B52F030205627453B52F0280627454B52F6F
:200401000302029B7455B52F030205DA7458B52F030205DF745AB52F0302029B0205E97556
:200421001E0102029B75200102029B75210102029B75230102029B75240102029BE52360B9
:200441000AE51D14F9891D8706800BE51D24FEFD8D1D8D0187068E821201A10205F5E51D1C
:2004610024FDFE8E1D8E01870409870509870619198C108D118E128C828D838EF01208ACFE
:2004810085823085833174FFB52A09B52B0685302A85312BE51E703DC3E5309528E53195FA
:2004A100295032E528C39530F528E5299531F529AC28AB298C028B061CBCFF011BEA4E609A
:2004C10010758220C004C0031201A1D003D00480E38C288B29AD2AAE2B85108285118385E2
:2004E10012F01208E1FB6033C3E49D74808EF063F08095F050251DBDFF011E8B82C006C062
:20050100051201A1D005D006AA10AB11AC120ABA00010B8A108B118C1280BEE51E700302E8
:2005210005F5C3E5309528E531952940030205F5E528C39530F528E5299531F529AE28ADF1
:20054100298E038D041EBEFF011DEB4C70030205F1758220C006C0051201A1D005D0068033
:20056100E0E51D24FDFC8C1D8C01870209870309870419198A108B118C12AC12BC80004055
:20058100047B438014BC600040047B50800BBC400040047B4980027B588B82C0031201A171
:2005A10075823A1201A17582301201A17582781201A1D003BB4902800BBB500280068511CA
:2005C100821201DE8510821201DE802875220175270A8020752708801B75270A8016752702
:2005E100108011752501800C852F821201A180048E288D29E525605BE51D24FCFE8E1D8E3A
:200601000187030987040987050987061919198B108C118D128E1375107D75110975128034
:2006210085103285113385123474012532FAE43533FBAE348A108B118E1285328285338325
:200641008534F01208E1FD700302024E8D821201A180CDE527700302024EE5236029E51DBF
:2006610014F9891D87067D007C007B008E108D118C128B13E5227063AB10FCFDFE8B108C9A
:20068100118D128E138054E5246021E51D24FCFE8E1D8E01870309870409870509870619EE
:2006A10019198B108C118D128E13802FE51D24FEFE8E1D8E01870509870619EE3395E0FCB7
:2006C100FB8D108E118C128B13E522700EAB10AC11FDFE8B108C118D128E13E5226023E5C7
:2006E1001330E71BC3E49510FBE49511FCE49512FDE49513FE8B108C118D128E1380037565
:200701002200752601793E7D007E00751400852782C006C005C0011201F5D001D005D006E1
:20072100E5267013E514C454F0FCE514C4540F4204E74CF7198002A7140DBD00010EE52663
:20074100B40100E433F526E51045114512451370BA892E8D2C8E2DE52845297005752801D4
:20076100F529E51F702DE51E7029AA28AB29AC2C0C7E00C3EC9AEE9B5015758220C003C044
:20078100021201A1D002D0031ABAFF011B80DF8A288B29E522601175822D1201A115287448
:2007A100FFB528021529802EE52C452D6028E520601175822B1201A1152874FFB528021573
:2007C100298013E521600F7582201201A1152874FFB528021529E51E702FAE28AD298E0370
:2007E1008D041EBEFF011DC3E52C9BE52D9C503AE51F60047C3080027C208C82C006C005FC
:200801001201A1D005D00680D5C3E52C9528E52D9529500FE528C3952CF528E529952DF5F0
:2008210029800BE4F528F52980048E288D29A92EAD2CAE2D8D038E041DBDFF011EEB4C60B8
:2008410030E526B40100E433F526700A09E7C4540FFC8C1480078704740F5CF51485148233
:20086100C006C005C0011201C4D001D005D00680C3E51E700302024EAD28AE298D038E04FF
:200881001DBDFF011EEB4C700302024E758220C006C0051201A1D005D00680E08F821201DE
:0B08A100A102024E85158285168322FD
:0B097D003C4E4F20464C4F41543E00C2
:1808AC00AA82AB831208E16003A380F8C3E5829AF582E5839BF5832289
:1D08C400E5828536F0A4C582C0F08537F0A4D0F025F0C5838536F0A42583F583226C
:0D00060075813E1208FDE5826003020003D3
:1C08E10020F71430F6148883A88220F507E6A88375830022E280F7E49322E02226
:0408FD0075820022DE
:00000001FF
